{
  "contractName": "JobContractParent",
  "abi": [
    {
      "constant": true,
      "inputs": [],
      "name": "addressOfChild",
      "outputs": [
        {
          "name": "",
          "type": "address"
        }
      ],
      "payable": false,
      "stateMutability": "view",
      "type": "function"
    },
    {
      "inputs": [],
      "payable": false,
      "stateMutability": "nonpayable",
      "type": "constructor"
    },
    {
      "constant": false,
      "inputs": [
        {
          "name": "_budgetWei",
          "type": "uint256"
        },
        {
          "name": "_contractor",
          "type": "address"
        }
      ],
      "name": "createJobContract",
      "outputs": [],
      "payable": false,
      "stateMutability": "nonpayable",
      "type": "function"
    }
  ],
  "bytecode": "0x608060405234801561001057600080fd5b50336000806101000a81548173ffffffffffffffffffffffffffffffffffffffff021916908373ffffffffffffffffffffffffffffffffffffffff160217905550610c18806100606000396000f30060806040526004361061004c576000357c0100000000000000000000000000000000000000000000000000000000900463ffffffff1680634724492414610051578063615b69d81461009e575b600080fd5b34801561005d57600080fd5b5061009c60048036038101908080359060200190929190803573ffffffffffffffffffffffffffffffffffffffff1690602001909291905050506100f5565b005b3480156100aa57600080fd5b506100b36101dc565b604051808273ffffffffffffffffffffffffffffffffffffffff1673ffffffffffffffffffffffffffffffffffffffff16815260200191505060405180910390f35b600080339150838383610106610202565b808481526020018373ffffffffffffffffffffffffffffffffffffffff1673ffffffffffffffffffffffffffffffffffffffff1681526020018273ffffffffffffffffffffffffffffffffffffffff1673ffffffffffffffffffffffffffffffffffffffff1681526020019350505050604051809103906000f080158015610192573d6000803e3d6000fd5b50905080600160006101000a81548173ffffffffffffffffffffffffffffffffffffffff021916908373ffffffffffffffffffffffffffffffffffffffff16021790555050505050565b600160009054906101000a900473ffffffffffffffffffffffffffffffffffffffff1681565b6040516109da80610213833901905600608060405234801561001057600080fd5b506040516060806109da8339810180604052810190808051906020019092919080519060200190929190805190602001909291905050508260008190555080600160006101000a81548173ffffffffffffffffffffffffffffffffffffffff021916908373ffffffffffffffffffffffffffffffffffffffff1602179055508173ffffffffffffffffffffffffffffffffffffffff16600160009054906101000a900473ffffffffffffffffffffffffffffffffffffffff1673ffffffffffffffffffffffffffffffffffffffff16141515156100ec57600080fd5b81600260006101000a81548173ffffffffffffffffffffffffffffffffffffffff021916908373ffffffffffffffffffffffffffffffffffffffff1602179055506000600260146101000a81548160ff021916908360000b60ff1602179055506000600260156101000a81548160ff021916908315150217905550505050610861806101796000396000f3006080604052600436106100a4576000357c0100000000000000000000000000000000000000000000000000000000900463ffffffff1680630f1afa88146100a95780631eb5ea2e146100c0578063200d2ed2146100d757806362ef1f81146101085780638da5cb5b1461011f5780638e68216e14610176578063b502018f14610180578063d1dfae2b146101ab578063d60c13a1146101c2578063fbfd2045146101f1575b600080fd5b3480156100b557600080fd5b506100be610248565b005b3480156100cc57600080fd5b506100d56102c1565b005b3480156100e357600080fd5b506100ec6103ed565b604051808260000b60000b815260200191505060405180910390f35b34801561011457600080fd5b5061011d610400565b005b34801561012b57600080fd5b50610134610587565b604051808273ffffffffffffffffffffffffffffffffffffffff1673ffffffffffffffffffffffffffffffffffffffff16815260200191505060405180910390f35b61017e6105ad565b005b34801561018c57600080fd5b506101956106da565b6040518082815260200191505060405180910390f35b3480156101b757600080fd5b506101c06106e0565b005b3480156101ce57600080fd5b506101d76107fc565b604051808215151515815260200191505060405180910390f35b3480156101fd57600080fd5b5061020661080f565b604051808273ffffffffffffffffffffffffffffffffffffffff1673ffffffffffffffffffffffffffffffffffffffff16815260200191505060405180910390f35b600260009054906101000a900473ffffffffffffffffffffffffffffffffffffffff1673ffffffffffffffffffffffffffffffffffffffff163373ffffffffffffffffffffffffffffffffffffffff161415156102a457600080fd5b6001600260156101000a81548160ff021916908315150217905550565b600160009054906101000a900473ffffffffffffffffffffffffffffffffffffffff1673ffffffffffffffffffffffffffffffffffffffff163373ffffffffffffffffffffffffffffffffffffffff1614151561031d57600080fd5b6003600260149054906101000a900460000b60000b1415151561033f57600080fd5b6004600260149054906101000a900460000b60000b1415151561036157600080fd5b60011515600260159054906101000a900460ff16151514151561038357600080fd5b3373ffffffffffffffffffffffffffffffffffffffff166108fc6000549081150290604051600060405180830381858888f193505050501580156103cb573d6000803e3d6000fd5b506004600260146101000a81548160ff021916908360000b60ff160217905550565b600260149054906101000a900460000b81565b600160009054906101000a900473ffffffffffffffffffffffffffffffffffffffff1673ffffffffffffffffffffffffffffffffffffffff163373ffffffffffffffffffffffffffffffffffffffff1614151561045c57600080fd5b600160009054906101000a900473ffffffffffffffffffffffffffffffffffffffff1673ffffffffffffffffffffffffffffffffffffffff16600260009054906101000a900473ffffffffffffffffffffffffffffffffffffffff1673ffffffffffffffffffffffffffffffffffffffff16141515156104db57600080fd5b60028060149054906101000a900460000b60000b1415156104fb57600080fd5b600260009054906101000a900473ffffffffffffffffffffffffffffffffffffffff1673ffffffffffffffffffffffffffffffffffffffff166108fc6000549081150290604051600060405180830381858888f19350505050158015610565573d6000803e3d6000fd5b506003600260146101000a81548160ff021916908360000b60ff160217905550565b600160009054906101000a900473ffffffffffffffffffffffffffffffffffffffff1681565b600160009054906101000a900473ffffffffffffffffffffffffffffffffffffffff1673ffffffffffffffffffffffffffffffffffffffff163373ffffffffffffffffffffffffffffffffffffffff1614151561060957600080fd5b600160009054906101000a900473ffffffffffffffffffffffffffffffffffffffff1673ffffffffffffffffffffffffffffffffffffffff16600260009054906101000a900473ffffffffffffffffffffffffffffffffffffffff1673ffffffffffffffffffffffffffffffffffffffff161415151561068857600080fd5b6000600260149054906101000a900460000b60000b1415156106a957600080fd5b346000541415156106b957600080fd5b6001600260146101000a81548160ff021916908360000b60ff160217905550565b60005481565b600260009054906101000a900473ffffffffffffffffffffffffffffffffffffffff1673ffffffffffffffffffffffffffffffffffffffff163373ffffffffffffffffffffffffffffffffffffffff1614151561073c57600080fd5b600160009054906101000a900473ffffffffffffffffffffffffffffffffffffffff1673ffffffffffffffffffffffffffffffffffffffff16600260009054906101000a900473ffffffffffffffffffffffffffffffffffffffff1673ffffffffffffffffffffffffffffffffffffffff16141515156107bb57600080fd5b6001600260149054906101000a900460000b60000b1415156107dc57600080fd5b60028060146101000a81548160ff021916908360000b60ff160217905550565b600260159054906101000a900460ff1681565b600260009054906101000a900473ffffffffffffffffffffffffffffffffffffffff16815600a165627a7a723058207f98960eab0cf59b5a470ddd7f93f83150bb1c9edb9687b37bf94490b3565c1d0029a165627a7a72305820c80dcb197c812299a3123563143ae8b0bfa498afe8a4f87a835484962a07bd8c0029",
  "source": "pragma solidity 0.4.24;\n\ncontract JobContractParent\n{\n    address owner;\n    address public addressOfChild;\n    \n    constructor() public\n    {\n        owner = msg.sender;\n    }\n    \n    function createJobContract(uint _budgetWei, address _contractor) public\n    {\n        address _jobOwner = msg.sender;\n        JobContract childJobContract = new JobContract(_budgetWei, _contractor, _jobOwner);\n        // get address of deployed contract\n        addressOfChild = childJobContract;\n    }\n}\n\n\ncontract JobContract\n{\n    uint public budgetWei;\n    address public owner;\n    address public contractor;\n    int8 public status;\n    bool public refundApproved;\n    // 0- nothing has been payed yet, 1- owner has put the deposit thus the contract is locked, 2- contractor has completed the work, 3 - owner confirmed it and job is finished, 4- refunded and canceled\n    // we could add another status for contractor acepting the contract if possibly he changed his mind\n    // we could also do this with mapping and without status\n    \n    // adding _jobOwner as we have to pass it from the parent contract as else the parent contract is the owner and we do not want that!\n    constructor(uint _budgetWei, address _contractor, address _jobOwner) public\n    {\n        budgetWei=_budgetWei;\n        owner = _jobOwner;\n        require(owner!=_contractor);\n        contractor = _contractor;\n        status = 0;\n        refundApproved = false;\n    }\n    \n    modifier onlyOwner\n    {\n        require(msg.sender==owner);\n        _;\n    }\n    \n    modifier onlyContractor\n    {\n        require(msg.sender==contractor);\n        _;\n    }\n    \n    function lockOwnerFunds() payable public onlyOwner\n    {\n        require(contractor!=owner);\n        require(status==0);\n        require(budgetWei==msg.value);\n        // funds locked, work in progress...\n        status=1;\n    }\n    \n    function finishJob() public onlyContractor\n    {\n        require(contractor!=owner);\n        require(status==1);\n        // contractor finished the job...\n        status=2;\n    }\n    \n    function confirmPayment() public onlyOwner\n    {\n        require(contractor!=owner);\n        require(status==2);\n        // owner confirms that the work is ok and agrees to confirm payment \n        // could use selfdestruct(contractor) here? https://ethereum.stackexchange.com/questions/315/why-are-suicides-used-in-contract-programming\n        //posiljanje iz contracta\n        contractor.transfer(budgetWei);\n        status=3;\n    }\n    \n    // disputes!\n    function returnFunds() public onlyOwner\n    {\n        // if there is some sort of a dispute return locked funds only when work in progress? \n        require(status!=3);\n        require(status!=4);\n        require(refundApproved==true);\n        \n        msg.sender.transfer(budgetWei);\n        status=4;\n    }\n    \n    // function for agreeing to refund from the side of contractor\n    function approveRefound() public onlyContractor\n    {   \n        // but this can be used to extort the owner as it prevents him in refunding!\n        refundApproved = true;\n    }\n        \n}\n",
  "sourcePath": "/home/primoz/Documents/GitProjects/JobContract/contracts/JobContract.sol",
  "compiler": {
    "name": "solc",
    "version": "0.4.24+commit.e67f0147.Emscripten.clang"
  },
  "schemaVersion": "2.0.1",
  "updatedAt": "2018-11-07T10:08:06.449Z"
}